{
    "contractName": "SushiSwapLpLockedStrat",
    "abi": [
        {
            "inputs": [
                {
                    "internalType": "address",
                    "name": "_underlyingAssetAddress",
                    "type": "address"
                },
                {
                    "internalType": "address",
                    "name": "_rewardAssetAddress",
                    "type": "address"
                },
                {
                    "internalType": "address",
                    "name": "_nativeAssetAddress",
                    "type": "address"
                },
                {
                    "internalType": "uint256",
                    "name": "_poolId",
                    "type": "uint256"
                },
                {
                    "internalType": "address",
                    "name": "_chefAddress",
                    "type": "address"
                },
                {
                    "internalType": "address",
                    "name": "_unirouterAddress",
                    "type": "address"
                }
            ],
            "stateMutability": "nonpayable",
            "type": "constructor"
        },
        {
            "inputs": [
                {
                    "internalType": "uint256",
                    "name": "_amount",
                    "type": "uint256"
                }
            ],
            "name": "deposit",
            "outputs": [],
            "stateMutability": "nonpayable",
            "type": "function"
        },
        {
            "inputs": [],
            "name": "depositAll",
            "outputs": [],
            "stateMutability": "nonpayable",
            "type": "function"
        },
        {
            "inputs": [],
            "name": "execute",
            "outputs": [],
            "stateMutability": "nonpayable",
            "type": "function"
        },
        {
            "inputs": [],
            "name": "getDeployedBalance",
            "outputs": [
                {
                    "internalType": "uint256",
                    "name": "",
                    "type": "uint256"
                }
            ],
            "stateMutability": "view",
            "type": "function"
        },
        {
            "inputs": [],
            "name": "getPendingRewardAmount",
            "outputs": [
                {
                    "internalType": "uint256",
                    "name": "",
                    "type": "uint256"
                }
            ],
            "stateMutability": "view",
            "type": "function"
        },
        {
            "inputs": [],
            "name": "getTvl",
            "outputs": [
                {
                    "internalType": "uint256",
                    "name": "",
                    "type": "uint256"
                }
            ],
            "stateMutability": "view",
            "type": "function"
        },
        {
            "inputs": [],
            "name": "getUndeployedBalance",
            "outputs": [
                {
                    "internalType": "uint256",
                    "name": "",
                    "type": "uint256"
                }
            ],
            "stateMutability": "view",
            "type": "function"
        },
        {
            "inputs": [],
            "name": "owner",
            "outputs": [
                {
                    "internalType": "address",
                    "name": "",
                    "type": "address"
                }
            ],
            "stateMutability": "view",
            "type": "function"
        },
        {
            "inputs": [],
            "name": "panic",
            "outputs": [],
            "stateMutability": "nonpayable",
            "type": "function"
        },
        {
            "inputs": [],
            "name": "renounceOwnership",
            "outputs": [],
            "stateMutability": "nonpayable",
            "type": "function"
        },
        {
            "inputs": [],
            "name": "retire",
            "outputs": [],
            "stateMutability": "nonpayable",
            "type": "function"
        },
        {
            "inputs": [
                {
                    "internalType": "address",
                    "name": "newOwner",
                    "type": "address"
                }
            ],
            "name": "transferOwnership",
            "outputs": [],
            "stateMutability": "nonpayable",
            "type": "function"
        },
        {
            "inputs": [],
            "name": "unpanic",
            "outputs": [],
            "stateMutability": "nonpayable",
            "type": "function"
        },
        {
            "inputs": [
                {
                    "internalType": "address",
                    "name": "_token",
                    "type": "address"
                }
            ],
            "name": "untuckTokens",
            "outputs": [],
            "stateMutability": "nonpayable",
            "type": "function"
        },
        {
            "inputs": [
                {
                    "internalType": "uint256",
                    "name": "_amount",
                    "type": "uint256"
                }
            ],
            "name": "withdraw",
            "outputs": [],
            "stateMutability": "nonpayable",
            "type": "function"
        },
        {
            "inputs": [],
            "name": "withdrawAll",
            "outputs": [],
            "stateMutability": "nonpayable",
            "type": "function"
        },
        {
            "inputs": [],
            "name": "withdrawAllUndeployed",
            "outputs": [],
            "stateMutability": "nonpayable",
            "type": "function"
        }
    ],
    "bytecode": "60806040523480156200001157600080fd5b506040516200223f3803806200223f8339810160408190526200003491620007f9565b600080546001600160a01b031990811633179091556001805482166001600160a01b038981169182179092556002805484168984161790556008805484169285169290921790915560078054909216811790915560408051630dfe168160e01b81529051889288928592630dfe1681916004808201926020929091908290030181865afa158015620000ca573d6000803e3d6000fd5b505050506040513d601f19601f82011682018060405250810190620000f0919062000871565b600380546001600160a01b0319166001600160a01b039283161790556007546040805163d21220a760e01b81529051919092169163d21220a79160048083019260209291908290030181865afa1580156200014f573d6000803e3d6000fd5b505050506040513d601f19601f8201168201806040525081019062000175919062000871565b600480546001600160a01b0319166001600160a01b039283161790556040805180820190915260028054831682526003549092166020820152620001bd91600591906200075b565b5060408051808201909152600280546001600160a01b039081168352600454166020830152620001f0916006916200075b565b5050600980546001600160a01b0319166001600160a01b03888116918217909255604080518082019091529081529088166020820152620002389250600a915060026200075b565b50600b80546001600160a01b0384166001600160a01b03199182168117909255600c80549091169091179055600d839055620002736200027f565b50505050505062000953565b600854600b546001546001600160a01b0392831692620002b39291811691166000196200039e602090811b62000cb017901c565b600254620002da906001600160a01b0316826000196200039e602090811b62000cb017901c565b60095462000301906001600160a01b0316826000196200039e602090811b62000cb017901c565b60035462000327906001600160a01b03168260006200039e602090811b62000cb017901c565b6003546200034e906001600160a01b0316826000196200039e602090811b62000cb017901c565b60045462000374906001600160a01b03168260006200039e602090811b62000cb017901c565b6004546200039b906001600160a01b0316826000196200039e602090811b62000cb017901c565b50565b8015806200041c5750604051636eb1769f60e11b81523060048201526001600160a01b03838116602483015284169063dd62ed3e90604401602060405180830381865afa158015620003f4573d6000803e3d6000fd5b505050506040513d601f19601f820116820180604052508101906200041a91906200088f565b155b620004945760405162461bcd60e51b815260206004820152603660248201527f5361666545524332303a20617070726f76652066726f6d206e6f6e2d7a65726f60448201527f20746f206e6f6e2d7a65726f20616c6c6f77616e63650000000000000000000060648201526084015b60405180910390fd5b604080516001600160a01b038416602482015260448082018490528251808303909101815260649091019091526020810180516001600160e01b0390811663095ea7b360e01b17909152620004ec918591620004f116565b505050565b60006200054d826040518060400160405280602081526020017f5361666545524332303a206c6f772d6c6576656c2063616c6c206661696c6564815250856001600160a01b0316620005cf60201b62000df8179092919060201c565b805190915015620004ec57808060200190518101906200056e9190620008a9565b620004ec5760405162461bcd60e51b815260206004820152602a60248201527f5361666545524332303a204552433230206f7065726174696f6e20646964206e6044820152691bdd081cdd58d8d9595960b21b60648201526084016200048b565b6060620005e08484600085620005ea565b90505b9392505050565b6060824710156200064d5760405162461bcd60e51b815260206004820152602660248201527f416464726573733a20696e73756666696369656e742062616c616e636520666f6044820152651c8818d85b1b60d21b60648201526084016200048b565b843b6200069d5760405162461bcd60e51b815260206004820152601d60248201527f416464726573733a2063616c6c20746f206e6f6e2d636f6e747261637400000060448201526064016200048b565b600080866001600160a01b03168587604051620006bb919062000900565b60006040518083038185875af1925050503d8060008114620006fa576040519150601f19603f3d011682016040523d82523d6000602084013e620006ff565b606091505b509092509050620007128282866200071d565b979650505050505050565b606083156200072e575081620005e3565b8251156200073f5782518084602001fd5b8160405162461bcd60e51b81526004016200048b91906200091e565b828054828255906000526020600020908101928215620007b3579160200282015b82811115620007b357825182546001600160a01b0319166001600160a01b039091161782556020909201916001909101906200077c565b50620007c1929150620007c5565b5090565b5b80821115620007c15760008155600101620007c6565b80516001600160a01b0381168114620007f457600080fd5b919050565b60008060008060008060c087890312156200081357600080fd5b6200081e87620007dc565b95506200082e60208801620007dc565b94506200083e60408801620007dc565b9350606087015192506200085560808801620007dc565b91506200086560a08801620007dc565b90509295509295509295565b6000602082840312156200088457600080fd5b620005e382620007dc565b600060208284031215620008a257600080fd5b5051919050565b600060208284031215620008bc57600080fd5b81518015158114620005e357600080fd5b60005b83811015620008ea578181015183820152602001620008d0565b83811115620008fa576000848401525b50505050565b6000825162000914818460208701620008cd565b9190910192915050565b60208152600082518060208401526200093f816040850160208701620008cd565b601f01601f19169190910160400192915050565b6118dc80620009636000396000f3fe608060405234801561001057600080fd5b506004361061010b5760003560e01c806385a1b596116100a2578063b6b55f2511610071578063b6b55f25146101ae578063ba6c9433146101c1578063d075dd42146101c9578063de5f6268146101d1578063f2fde38b146101d957600080fd5b806385a1b5961461017b5780638da5cb5b14610183578063a378011f1461019e578063a4874d77146101a657600080fd5b806361461954116100de578063614619541461015b57806365a5e30b14610163578063715018a61461016b578063853828b61461017357600080fd5b8063050d1bae146101105780630d85391c1461012b5780632e1a7d4d146101405780634700d30514610153575b600080fd5b6101186101ec565b6040519081526020015b60405180910390f35b61013e610139366004611576565b61025f565b005b61013e61014e36600461159f565b610318565b61013e6104ca565b61013e610566565b61013e610755565b61013e610787565b61013e6107bb565b61011861089c565b6000546040516001600160a01b039091168152602001610122565b6101186108d8565b61013e61095a565b61013e6101bc36600461159f565b610a06565b61013e610a21565b610118610a83565b61013e610b52565b61013e6101e7366004611576565b610c18565b6001546040516370a0823160e01b81523060048201526000916001600160a01b0316906370a08231906024015b602060405180830381865afa158015610236573d6000803e3d6000fd5b505050506040513d601f19601f8201168201806040525081019061025a91906115b8565b905090565b6000546001600160a01b031633146102925760405162461bcd60e51b8152600401610289906115d1565b60405180910390fd5b6040516370a0823160e01b815230600482015281906103149033906001600160a01b038416906370a08231906024015b602060405180830381865afa1580156102df573d6000803e3d6000fd5b505050506040513d601f19601f8201168201806040525081019061030391906115b8565b6001600160a01b0384169190610e11565b5050565b6000546001600160a01b031633146103425760405162461bcd60e51b8152600401610289906115d1565b6001546040516370a0823160e01b81523060048201526001600160a01b039091169060009082906370a0823190602401602060405180830381865afa15801561038f573d6000803e3d6000fd5b505050506040513d601f19601f820116820180604052508101906103b391906115b8565b9050828110156104a657600c54600d546001600160a01b0390911690630ad58d2f906103df8685610e41565b6040516001600160e01b031960e085901b16815260048101929092526024820152306044820152606401600060405180830381600087803b15801561042357600080fd5b505af1158015610437573d6000803e3d6000fd5b50506040516370a0823160e01b81523060048201526001600160a01b03851692506370a082319150602401602060405180830381865afa15801561047f573d6000803e3d6000fd5b505050506040513d601f19601f820116820180604052508101906104a391906115b8565b90505b828111156104b15750815b6104c56001600160a01b0383163383610e11565b505050565b6000546001600160a01b031633146104f45760405162461bcd60e51b8152600401610289906115d1565b600c54600d546040516302f940c760e41b815260048101919091523360248201526001600160a01b0390911690632f940c7090604401600060405180830381600087803b15801561054457600080fd5b505af1158015610558573d6000803e3d6000fd5b50505050610564610e4d565b565b600c54600d54604051630c7e663b60e11b815260048101919091523060248201526001600160a01b03909116906318fccc7690604401600060405180830381600087803b1580156105b657600080fd5b505af11580156105ca573d6000803e3d6000fd5b50506009546040516370a0823160e01b8152306004820152600093506001600160a01b0390911691506370a0823190602401602060405180830381865afa158015610619573d6000803e3d6000fd5b505050506040513d601f19601f8201168201806040525081019061063d91906115b8565b905080156106c8576008546040516338ed173960e01b81526001600160a01b03909116906338ed17399061067f908490600090600a9030904290600401611606565b6000604051808303816000875af115801561069e573d6000803e3d6000fd5b505050506040513d6000823e601f3d908101601f191682016040526106c69190810190611692565b505b6106d0610ed2565b60006106da6101ec565b9050801561031457600c54600d54604051638dbdbe6d60e01b81526004810191909152602481018390523060448201526001600160a01b0390911690638dbdbe6d90606401600060405180830381600087803b15801561073957600080fd5b505af115801561074d573d6000803e3d6000fd5b505050505050565b6000546001600160a01b0316331461077f5760405162461bcd60e51b8152600401610289906115d1565b610564611217565b6000546001600160a01b031633146107b15760405162461bcd60e51b8152600401610289906115d1565b61056460006112d1565b6000546001600160a01b031633146107e55760405162461bcd60e51b8152600401610289906115d1565b6001546040516370a0823160e01b81523060048201526001600160a01b039091169061081d90339083906370a08231906024016102c2565b600c54600d546001600160a01b039091169063d1abb9079061083d6108d8565b6040516001600160e01b031960e085901b16815260048101929092526024820152336044820152606401600060405180830381600087803b15801561088157600080fd5b505af1158015610895573d6000803e3d6000fd5b5050505050565b600c54600d5460405163065509bb60e21b815260048101919091523060248201526000916001600160a01b03169063195426ec90604401610219565b600c54600d546040516393f1a40b60e01b8152600481019190915230602482015260009182916001600160a01b03909116906393f1a40b906044016040805180830381865afa15801561092f573d6000803e3d6000fd5b505050506040513d601f19601f820116820180604052508101906109539190611750565b5092915050565b6000546001600160a01b031633146109845760405162461bcd60e51b8152600401610289906115d1565b600c54600d546001600160a01b039091169063d1abb907906109a46108d8565b6040516001600160e01b031960e085901b16815260048101929092526024820152336044820152606401600060405180830381600087803b1580156109e857600080fd5b505af11580156109fc573d6000803e3d6000fd5b5033925082915050ff5b600154610a1e906001600160a01b03163330846112f3565b50565b6000546001600160a01b03163314610a4b5760405162461bcd60e51b8152600401610289906115d1565b6001546040516370a0823160e01b81523060048201526001600160a01b0390911690610a1e90339083906370a08231906024016102c2565b600061025a306001600160a01b031663a378011f6040518163ffffffff1660e01b8152600401602060405180830381865afa158015610ac6573d6000803e3d6000fd5b505050506040513d601f19601f82011682018060405250810190610aea91906115b8565b306001600160a01b031663050d1bae6040518163ffffffff1660e01b8152600401602060405180830381865afa158015610b28573d6000803e3d6000fd5b505050506040513d601f19601f82011682018060405250810190610b4c91906115b8565b9061132b565b6001546040516370a0823160e01b8152336004820152309163b6b55f25916001600160a01b03909116906370a0823190602401602060405180830381865afa158015610ba2573d6000803e3d6000fd5b505050506040513d601f19601f82011682018060405250810190610bc691906115b8565b6040518263ffffffff1660e01b8152600401610be491815260200190565b600060405180830381600087803b158015610bfe57600080fd5b505af1158015610c12573d6000803e3d6000fd5b50505050565b6000546001600160a01b03163314610c425760405162461bcd60e51b8152600401610289906115d1565b6001600160a01b038116610ca75760405162461bcd60e51b815260206004820152602660248201527f4f776e61626c653a206e6577206f776e657220697320746865207a65726f206160448201526564647265737360d01b6064820152608401610289565b610a1e816112d1565b801580610d2a5750604051636eb1769f60e11b81523060048201526001600160a01b03838116602483015284169063dd62ed3e90604401602060405180830381865afa158015610d04573d6000803e3d6000fd5b505050506040513d601f19601f82011682018060405250810190610d2891906115b8565b155b610d955760405162461bcd60e51b815260206004820152603660248201527f5361666545524332303a20617070726f76652066726f6d206e6f6e2d7a65726f60448201527520746f206e6f6e2d7a65726f20616c6c6f77616e636560501b6064820152608401610289565b6040516001600160a01b0383166024820152604481018290526104c590849063095ea7b360e01b906064015b60408051601f198184030181529190526020810180516001600160e01b03166001600160e01b031990931692909217909152611337565b6060610e078484600085611409565b90505b9392505050565b6040516001600160a01b0383166024820152604481018290526104c590849063a9059cbb60e01b90606401610dc1565b6000610e0a828461178a565b600854600b546001546001600160a01b0392831692610e729291811691166000610cb0565b600254610e8a906001600160a01b0316826000610cb0565b600954610ea2906001600160a01b0316826000610cb0565b600354610eba906001600160a01b0316826000610cb0565b600454610a1e906001600160a01b0316826000610cb0565b6002546040516370a0823160e01b81523060048201526000916001600160a01b0316906370a0823190602401602060405180830381865afa158015610f1b573d6000803e3d6000fd5b505050506040513d601f19601f82011682018060405250810190610f3f91906115b8565b905080610f495750565b6000610f56826002611531565b6001546003549192506001600160a01b03918216911614610ff4576008546040516338ed173960e01b81526001600160a01b03909116906338ed173990610fab90849060009060059030904290600401611606565b6000604051808303816000875af1158015610fca573d6000803e3d6000fd5b505050506040513d6000823e601f3d908101601f19168201604052610ff29190810190611692565b505b6001546004546001600160a01b0390811691161461108f576008546040516338ed173960e01b81526001600160a01b03909116906338ed17399061104690849060009060069030904290600401611606565b6000604051808303816000875af1158015611065573d6000803e3d6000fd5b505050506040513d6000823e601f3d908101601f1916820160405261108d9190810190611692565b505b600854600354600480546040516370a0823160e01b815230928101929092526001600160a01b039384169363e8e337009381169291169082906370a0823190602401602060405180830381865afa1580156110ee573d6000803e3d6000fd5b505050506040513d601f19601f8201168201806040525081019061111291906115b8565b600480546040516370a0823160e01b815230928101929092526001600160a01b0316906370a0823190602401602060405180830381865afa15801561115b573d6000803e3d6000fd5b505050506040513d601f19601f8201168201806040525081019061117f91906115b8565b6040516001600160e01b031960e087901b1681526001600160a01b0394851660048201529390921660248401526044830152606482015260016084820181905260a48201523060c48201524260e4820152610104016060604051808303816000875af11580156111f3573d6000803e3d6000fd5b505050506040513d601f19601f8201168201806040525081019061089591906117a1565b600854600b546001546001600160a01b039283169261123d929181169116600019610cb0565b600254611256906001600160a01b031682600019610cb0565b60095461126f906001600160a01b031682600019610cb0565b600354611287906001600160a01b0316826000610cb0565b6003546112a0906001600160a01b031682600019610cb0565b6004546112b8906001600160a01b0316826000610cb0565b600454610a1e906001600160a01b031682600019610cb0565b600080546001600160a01b0319166001600160a01b0392909216919091179055565b6040516001600160a01b0380851660248301528316604482015260648101829052610c129085906323b872dd60e01b90608401610dc1565b6000610e0a82846117cf565b600061138c826040518060400160405280602081526020017f5361666545524332303a206c6f772d6c6576656c2063616c6c206661696c6564815250856001600160a01b0316610df89092919063ffffffff16565b8051909150156104c557808060200190518101906113aa91906117e7565b6104c55760405162461bcd60e51b815260206004820152602a60248201527f5361666545524332303a204552433230206f7065726174696f6e20646964206e6044820152691bdd081cdd58d8d9595960b21b6064820152608401610289565b60608247101561146a5760405162461bcd60e51b815260206004820152602660248201527f416464726573733a20696e73756666696369656e742062616c616e636520666f6044820152651c8818d85b1b60d21b6064820152608401610289565b843b6114b85760405162461bcd60e51b815260206004820152601d60248201527f416464726573733a2063616c6c20746f206e6f6e2d636f6e74726163740000006044820152606401610289565b600080866001600160a01b031685876040516114d49190611835565b60006040518083038185875af1925050503d8060008114611511576040519150601f19603f3d011682016040523d82523d6000602084013e611516565b606091505b509150915061152682828661153d565b979650505050505050565b6000610e0a8284611851565b6060831561154c575081610e0a565b82511561155c5782518084602001fd5b8160405162461bcd60e51b81526004016102899190611873565b60006020828403121561158857600080fd5b81356001600160a01b0381168114610e0a57600080fd5b6000602082840312156115b157600080fd5b5035919050565b6000602082840312156115ca57600080fd5b5051919050565b6020808252818101527f4f776e61626c653a2063616c6c6572206973206e6f7420746865206f776e6572604082015260600190565b600060a082018783526020878185015260a0604085015281875480845260c0860191508860005282600020935060005b8181101561165b5784546001600160a01b031683526001948501949284019201611636565b50506001600160a01b03969096166060850152505050608001529392505050565b634e487b7160e01b600052604160045260246000fd5b600060208083850312156116a557600080fd5b825167ffffffffffffffff808211156116bd57600080fd5b818501915085601f8301126116d157600080fd5b8151818111156116e3576116e361167c565b8060051b604051601f19603f830116810181811085821117156117085761170861167c565b60405291825284820192508381018501918883111561172657600080fd5b938501935b828510156117445784518452938501939285019261172b565b98975050505050505050565b6000806040838503121561176357600080fd5b505080516020909101519092909150565b634e487b7160e01b600052601160045260246000fd5b60008282101561179c5761179c611774565b500390565b6000806000606084860312156117b657600080fd5b8351925060208401519150604084015190509250925092565b600082198211156117e2576117e2611774565b500190565b6000602082840312156117f957600080fd5b81518015158114610e0a57600080fd5b60005b8381101561182457818101518382015260200161180c565b83811115610c125750506000910152565b60008251611847818460208701611809565b9190910192915050565b60008261186e57634e487b7160e01b600052601260045260246000fd5b500490565b6020815260008251806020840152611892816040850160208701611809565b601f01601f1916919091016040019291505056fea2646970667358221220e108b8502164424c8b977a45f00735dcea53078077dfca92a3d4cdb6f5b092e864736f6c634300080a0033",
    "sourcePath": "/run/media/user/HDD_1/DEV/Qapo/Qapo.NET/Qapo.DeFi/Qapo.DeFi.Contracts/src/Contracts/Compounding/Strategies/SushiSwap/SushiSwapLpLockedStrat.sol",
    "compiler": {
        "name": "solc",
        "version": "0.8.10+commit.fc410830"
    },
    "functionHashes": {
        "deposit(uint256)": "b6b55f25",
        "depositAll()": "de5f6268",
        "execute()": "61461954",
        "getDeployedBalance()": "a378011f",
        "getPendingRewardAmount()": "85a1b596",
        "getTvl()": "d075dd42",
        "getUndeployedBalance()": "050d1bae",
        "owner()": "8da5cb5b",
        "panic()": "4700d305",
        "renounceOwnership()": "715018a6",
        "retire()": "a4874d77",
        "transferOwnership(address)": "f2fde38b",
        "unpanic()": "65a5e30b",
        "untuckTokens(address)": "0d85391c",
        "withdraw(uint256)": "2e1a7d4d",
        "withdrawAll()": "853828b6",
        "withdrawAllUndeployed()": "ba6c9433"
    },
    "gasEstimates": {
        "creation": {
            "codeDepositCost": "1272800",
            "executionCost": "infinite",
            "totalCost": "infinite"
        },
        "external": {
            "deposit(uint256)": "infinite",
            "depositAll()": "infinite",
            "execute()": "infinite",
            "getDeployedBalance()": "infinite",
            "getPendingRewardAmount()": "infinite",
            "getTvl()": "infinite",
            "getUndeployedBalance()": "infinite",
            "owner()": "2346",
            "panic()": "infinite",
            "renounceOwnership()": "26647",
            "retire()": "infinite",
            "transferOwnership(address)": "26850",
            "unpanic()": "infinite",
            "untuckTokens(address)": "infinite",
            "withdraw(uint256)": "infinite",
            "withdrawAll()": "infinite",
            "withdrawAllUndeployed()": "infinite"
        },
        "internal": {
            "_giveAllowances()": "infinite",
            "_removeAllowances()": "infinite"
        }
    }
}