{
    "contractName": "LockedStratSingleAssetNoCompSalem",
    "abi": [
        {
            "inputs": [
                {
                    "internalType": "address",
                    "name": "_underlyingAssetAddress",
                    "type": "address"
                },
                {
                    "internalType": "address",
                    "name": "_rewardAssetAddress",
                    "type": "address"
                },
                {
                    "internalType": "address",
                    "name": "_unirouterAddress",
                    "type": "address"
                },
                {
                    "internalType": "address",
                    "name": "_chefAddress",
                    "type": "address"
                },
                {
                    "internalType": "uint256",
                    "name": "_poolId",
                    "type": "uint256"
                }
            ],
            "stateMutability": "nonpayable",
            "type": "constructor"
        },
        {
            "inputs": [],
            "name": "deploy",
            "outputs": [],
            "stateMutability": "nonpayable",
            "type": "function"
        },
        {
            "inputs": [
                {
                    "internalType": "uint256",
                    "name": "_amount",
                    "type": "uint256"
                }
            ],
            "name": "deposit",
            "outputs": [],
            "stateMutability": "nonpayable",
            "type": "function"
        },
        {
            "inputs": [],
            "name": "depositAll",
            "outputs": [],
            "stateMutability": "nonpayable",
            "type": "function"
        },
        {
            "inputs": [],
            "name": "execute",
            "outputs": [],
            "stateMutability": "nonpayable",
            "type": "function"
        },
        {
            "inputs": [],
            "name": "getDeployedBalance",
            "outputs": [
                {
                    "internalType": "uint256",
                    "name": "",
                    "type": "uint256"
                }
            ],
            "stateMutability": "view",
            "type": "function"
        },
        {
            "inputs": [],
            "name": "getPendingRewardAmount",
            "outputs": [
                {
                    "internalType": "uint256",
                    "name": "",
                    "type": "uint256"
                }
            ],
            "stateMutability": "view",
            "type": "function"
        },
        {
            "inputs": [],
            "name": "getTvl",
            "outputs": [
                {
                    "internalType": "uint256",
                    "name": "",
                    "type": "uint256"
                }
            ],
            "stateMutability": "view",
            "type": "function"
        },
        {
            "inputs": [],
            "name": "getUndeployedBalance",
            "outputs": [
                {
                    "internalType": "uint256",
                    "name": "",
                    "type": "uint256"
                }
            ],
            "stateMutability": "view",
            "type": "function"
        },
        {
            "inputs": [],
            "name": "owner",
            "outputs": [
                {
                    "internalType": "address",
                    "name": "",
                    "type": "address"
                }
            ],
            "stateMutability": "view",
            "type": "function"
        },
        {
            "inputs": [],
            "name": "panic",
            "outputs": [],
            "stateMutability": "nonpayable",
            "type": "function"
        },
        {
            "inputs": [],
            "name": "renounceOwnership",
            "outputs": [],
            "stateMutability": "nonpayable",
            "type": "function"
        },
        {
            "inputs": [],
            "name": "retire",
            "outputs": [],
            "stateMutability": "nonpayable",
            "type": "function"
        },
        {
            "inputs": [
                {
                    "internalType": "address",
                    "name": "newOwner",
                    "type": "address"
                }
            ],
            "name": "transferOwnership",
            "outputs": [],
            "stateMutability": "nonpayable",
            "type": "function"
        },
        {
            "inputs": [],
            "name": "unpanic",
            "outputs": [],
            "stateMutability": "nonpayable",
            "type": "function"
        },
        {
            "inputs": [
                {
                    "internalType": "address",
                    "name": "_token",
                    "type": "address"
                }
            ],
            "name": "untuckTokens",
            "outputs": [],
            "stateMutability": "nonpayable",
            "type": "function"
        },
        {
            "inputs": [
                {
                    "internalType": "uint256",
                    "name": "_amount",
                    "type": "uint256"
                }
            ],
            "name": "withdraw",
            "outputs": [],
            "stateMutability": "nonpayable",
            "type": "function"
        },
        {
            "inputs": [],
            "name": "withdrawAll",
            "outputs": [],
            "stateMutability": "nonpayable",
            "type": "function"
        },
        {
            "inputs": [],
            "name": "withdrawAllUndeployed",
            "outputs": [],
            "stateMutability": "nonpayable",
            "type": "function"
        }
    ],
    "bytecode": "60806040523480156200001157600080fd5b5060405162001adc38038062001adc833981016040819052620000349162000592565b600080546001600160a01b031916331790558484848484848481600180546001600160a01b03199081166001600160a01b03938416179091556002805482169383169390931783556005805482168784161790556006859055600380549091168783161790556040805180820190915287821681529088166020820152620000c09250600491620004f4565b50620000cb620000db565b50505050505050505050620006bd565b60055460015462000108916001600160a01b03918216911660001962000137602090811b62000c6d17901c565b60035460025462000135916001600160a01b03918216911660001962000137602090811b62000c6d17901c565b565b801580620001b55750604051636eb1769f60e11b81523060048201526001600160a01b03838116602483015284169063dd62ed3e90604401602060405180830381865afa1580156200018d573d6000803e3d6000fd5b505050506040513d601f19601f82011682018060405250810190620001b39190620005f9565b155b6200022d5760405162461bcd60e51b815260206004820152603660248201527f5361666545524332303a20617070726f76652066726f6d206e6f6e2d7a65726f60448201527f20746f206e6f6e2d7a65726f20616c6c6f77616e63650000000000000000000060648201526084015b60405180910390fd5b604080516001600160a01b038416602482015260448082018490528251808303909101815260649091019091526020810180516001600160e01b0390811663095ea7b360e01b17909152620002859185916200028a16565b505050565b6000620002e6826040518060400160405280602081526020017f5361666545524332303a206c6f772d6c6576656c2063616c6c206661696c6564815250856001600160a01b03166200036860201b62000db5179092919060201c565b80519091501562000285578080602001905181019062000307919062000613565b620002855760405162461bcd60e51b815260206004820152602a60248201527f5361666545524332303a204552433230206f7065726174696f6e20646964206e6044820152691bdd081cdd58d8d9595960b21b606482015260840162000224565b606062000379848460008562000383565b90505b9392505050565b606082471015620003e65760405162461bcd60e51b815260206004820152602660248201527f416464726573733a20696e73756666696369656e742062616c616e636520666f6044820152651c8818d85b1b60d21b606482015260840162000224565b843b620004365760405162461bcd60e51b815260206004820152601d60248201527f416464726573733a2063616c6c20746f206e6f6e2d636f6e7472616374000000604482015260640162000224565b600080866001600160a01b031685876040516200045491906200066a565b60006040518083038185875af1925050503d806000811462000493576040519150601f19603f3d011682016040523d82523d6000602084013e62000498565b606091505b509092509050620004ab828286620004b6565b979650505050505050565b60608315620004c75750816200037c565b825115620004d85782518084602001fd5b8160405162461bcd60e51b815260040162000224919062000688565b8280548282559060005260206000209081019282156200054c579160200282015b828111156200054c57825182546001600160a01b0319166001600160a01b0390911617825560209092019160019091019062000515565b506200055a9291506200055e565b5090565b5b808211156200055a57600081556001016200055f565b80516001600160a01b03811681146200058d57600080fd5b919050565b600080600080600060a08688031215620005ab57600080fd5b620005b68662000575565b9450620005c66020870162000575565b9350620005d66040870162000575565b9250620005e66060870162000575565b9150608086015190509295509295909350565b6000602082840312156200060c57600080fd5b5051919050565b6000602082840312156200062657600080fd5b815180151581146200037c57600080fd5b60005b83811015620006545781810151838201526020016200063a565b8381111562000664576000848401525b50505050565b600082516200067e81846020870162000637565b9190910192915050565b6020815260008251806020840152620006a981604085016020870162000637565b601f01601f19169190910160400192915050565b61140f80620006cd6000396000f3fe608060405234801561001057600080fd5b50600436106101165760003560e01c806385a1b596116100a2578063b6b55f2511610071578063b6b55f25146101c1578063ba6c9433146101d4578063d075dd42146101dc578063de5f6268146101e4578063f2fde38b146101ec57600080fd5b806385a1b5961461018e5780638da5cb5b14610196578063a378011f146101b1578063a4874d77146101b957600080fd5b806361461954116100e9578063614619541461016657806365a5e30b1461016e578063715018a614610176578063775c300c1461017e578063853828b61461018657600080fd5b8063050d1bae1461011b5780630d85391c146101365780632e1a7d4d1461014b5780634700d3051461015e575b600080fd5b6101236101ff565b6040519081526020015b60405180910390f35b61014961014436600461111d565b610272565b005b610149610159366004611146565b61032b565b6101496104d7565b610149610572565b6101496106cb565b610149610705565b610149610739565b610149610837565b610123610912565b6000546040516001600160a01b03909116815260200161012d565b61012361094e565b610149610954565b6101496101cf366004611146565b6109fa565b610149610a12565b610123610a74565b610149610b43565b6101496101fa36600461111d565b610bd5565b6001546040516370a0823160e01b81523060048201526000916001600160a01b0316906370a08231906024015b602060405180830381865afa158015610249573d6000803e3d6000fd5b505050506040513d601f19601f8201168201806040525081019061026d919061115f565b905090565b6000546001600160a01b031633146102a55760405162461bcd60e51b815260040161029c90611178565b60405180910390fd5b6040516370a0823160e01b815230600482015281906103279033906001600160a01b038416906370a08231906024015b602060405180830381865afa1580156102f2573d6000803e3d6000fd5b505050506040513d601f19601f82011682018060405250810190610316919061115f565b6001600160a01b0384169190610dce565b5050565b6000546001600160a01b031633146103555760405162461bcd60e51b815260040161029c90611178565b6001546040516370a0823160e01b81523060048201526001600160a01b039091169060009082906370a0823190602401602060405180830381865afa1580156103a2573d6000803e3d6000fd5b505050506040513d601f19601f820116820180604052508101906103c6919061115f565b9050828110156104b3576005546006546001600160a01b039091169063441a3e70906103f28685610dfe565b6040516001600160e01b031960e085901b16815260048101929092526024820152604401600060405180830381600087803b15801561043057600080fd5b505af1158015610444573d6000803e3d6000fd5b50506040516370a0823160e01b81523060048201526001600160a01b03851692506370a082319150602401602060405180830381865afa15801561048c573d6000803e3d6000fd5b505050506040513d601f19601f820116820180604052508101906104b0919061115f565b90505b828111156104be5750815b6104d26001600160a01b0383163383610dce565b505050565b6000546001600160a01b031633146105015760405162461bcd60e51b815260040161029c90611178565b600554600654604051632989754760e11b81526001600160a01b0390921691635312ea8e916105369160040190815260200190565b600060405180830381600087803b15801561055057600080fd5b505af1158015610564573d6000803e3d6000fd5b50505050610570610e0a565b565b600554600654604051630441a3e760e41b81526004810191909152600060248201526001600160a01b039091169063441a3e7090604401600060405180830381600087803b1580156105c357600080fd5b505af11580156105d7573d6000803e3d6000fd5b50506002546040516370a0823160e01b8152306004820152600093506001600160a01b0390911691506370a0823190602401602060405180830381865afa158015610626573d6000803e3d6000fd5b505050506040513d601f19601f8201168201806040525081019061064a919061115f565b6003546040516338ed173960e01b81529192506001600160a01b0316906338ed1739906106849084906000906004903090429083016111ad565b6000604051808303816000875af11580156106a3573d6000803e3d6000fd5b505050506040513d6000823e601f3d908101601f191682016040526103279190810190611239565b6000546001600160a01b031633146106f55760405162461bcd60e51b815260040161029c90611178565b6106fd610e46565b610570610739565b6000546001600160a01b0316331461072f5760405162461bcd60e51b815260040161029c90611178565b6105706000610e84565b6000546001600160a01b031633146107635760405162461bcd60e51b815260040161029c90611178565b6005546006546001546040516370a0823160e01b81523060048201526001600160a01b039384169363e2bbb158939216906370a0823190602401602060405180830381865afa1580156107ba573d6000803e3d6000fd5b505050506040513d601f19601f820116820180604052508101906107de919061115f565b6040516001600160e01b031960e085901b168152600481019290925260248201526044015b600060405180830381600087803b15801561081d57600080fd5b505af1158015610831573d6000803e3d6000fd5b50505050565b6000546001600160a01b031633146108615760405162461bcd60e51b815260040161029c90611178565b6005546006546001600160a01b039091169063441a3e709061088161094e565b6040516001600160e01b031960e085901b16815260048101929092526024820152604401600060405180830381600087803b1580156108bf57600080fd5b505af11580156108d3573d6000803e3d6000fd5b50506001546040516370a0823160e01b81523060048201526001600160a01b03909116925061090f9150339083906370a08231906024016102d5565b50565b60055460065460405163ec5ba98760e01b815260048101919091523060248201526000916001600160a01b03169063ec5ba9879060440161022c565b60008080fd5b6000546001600160a01b0316331461097e5760405162461bcd60e51b815260040161029c90611178565b6005546006546001600160a01b039091169063441a3e709061099e61094e565b6040516001600160e01b031960e085901b16815260048101929092526024820152604401600060405180830381600087803b1580156109dc57600080fd5b505af11580156109f0573d6000803e3d6000fd5b5033925082915050ff5b60015461090f906001600160a01b0316333084610ea6565b6000546001600160a01b03163314610a3c5760405162461bcd60e51b815260040161029c90611178565b6001546040516370a0823160e01b81523060048201526001600160a01b039091169061090f90339083906370a08231906024016102d5565b600061026d306001600160a01b031663a378011f6040518163ffffffff1660e01b8152600401602060405180830381865afa158015610ab7573d6000803e3d6000fd5b505050506040513d601f19601f82011682018060405250810190610adb919061115f565b306001600160a01b031663050d1bae6040518163ffffffff1660e01b8152600401602060405180830381865afa158015610b19573d6000803e3d6000fd5b505050506040513d601f19601f82011682018060405250810190610b3d919061115f565b90610ede565b6001546040516370a0823160e01b8152336004820152309163b6b55f25916001600160a01b03909116906370a0823190602401602060405180830381865afa158015610b93573d6000803e3d6000fd5b505050506040513d601f19601f82011682018060405250810190610bb7919061115f565b6040518263ffffffff1660e01b815260040161080391815260200190565b6000546001600160a01b03163314610bff5760405162461bcd60e51b815260040161029c90611178565b6001600160a01b038116610c645760405162461bcd60e51b815260206004820152602660248201527f4f776e61626c653a206e6577206f776e657220697320746865207a65726f206160448201526564647265737360d01b606482015260840161029c565b61090f81610e84565b801580610ce75750604051636eb1769f60e11b81523060048201526001600160a01b03838116602483015284169063dd62ed3e90604401602060405180830381865afa158015610cc1573d6000803e3d6000fd5b505050506040513d601f19601f82011682018060405250810190610ce5919061115f565b155b610d525760405162461bcd60e51b815260206004820152603660248201527f5361666545524332303a20617070726f76652066726f6d206e6f6e2d7a65726f60448201527520746f206e6f6e2d7a65726f20616c6c6f77616e636560501b606482015260840161029c565b6040516001600160a01b0383166024820152604481018290526104d290849063095ea7b360e01b906064015b60408051601f198184030181529190526020810180516001600160e01b03166001600160e01b031990931692909217909152610eea565b6060610dc48484600085610fbc565b90505b9392505050565b6040516001600160a01b0383166024820152604481018290526104d290849063a9059cbb60e01b90606401610d7e565b6000610dc7828461130d565b600554600154610e28916001600160a01b0391821691166000610c6d565b600354600254610570916001600160a01b0391821691166000610c6d565b600554600154610e65916001600160a01b039182169116600019610c6d565b600354600254610570916001600160a01b039182169116600019610c6d565b600080546001600160a01b0319166001600160a01b0392909216919091179055565b6040516001600160a01b03808516602483015283166044820152606481018290526108319085906323b872dd60e01b90608401610d7e565b6000610dc78284611324565b6000610f3f826040518060400160405280602081526020017f5361666545524332303a206c6f772d6c6576656c2063616c6c206661696c6564815250856001600160a01b0316610db59092919063ffffffff16565b8051909150156104d25780806020019051810190610f5d919061133c565b6104d25760405162461bcd60e51b815260206004820152602a60248201527f5361666545524332303a204552433230206f7065726174696f6e20646964206e6044820152691bdd081cdd58d8d9595960b21b606482015260840161029c565b60608247101561101d5760405162461bcd60e51b815260206004820152602660248201527f416464726573733a20696e73756666696369656e742062616c616e636520666f6044820152651c8818d85b1b60d21b606482015260840161029c565b843b61106b5760405162461bcd60e51b815260206004820152601d60248201527f416464726573733a2063616c6c20746f206e6f6e2d636f6e7472616374000000604482015260640161029c565b600080866001600160a01b03168587604051611087919061138a565b60006040518083038185875af1925050503d80600081146110c4576040519150601f19603f3d011682016040523d82523d6000602084013e6110c9565b606091505b50915091506110d98282866110e4565b979650505050505050565b606083156110f3575081610dc7565b8251156111035782518084602001fd5b8160405162461bcd60e51b815260040161029c91906113a6565b60006020828403121561112f57600080fd5b81356001600160a01b0381168114610dc757600080fd5b60006020828403121561115857600080fd5b5035919050565b60006020828403121561117157600080fd5b5051919050565b6020808252818101527f4f776e61626c653a2063616c6c6572206973206e6f7420746865206f776e6572604082015260600190565b600060a082018783526020878185015260a0604085015281875480845260c0860191508860005282600020935060005b818110156112025784546001600160a01b0316835260019485019492840192016111dd565b50506001600160a01b03969096166060850152505050608001529392505050565b634e487b7160e01b600052604160045260246000fd5b6000602080838503121561124c57600080fd5b825167ffffffffffffffff8082111561126457600080fd5b818501915085601f83011261127857600080fd5b81518181111561128a5761128a611223565b8060051b604051601f19603f830116810181811085821117156112af576112af611223565b6040529182528482019250838101850191888311156112cd57600080fd5b938501935b828510156112eb578451845293850193928501926112d2565b98975050505050505050565b634e487b7160e01b600052601160045260246000fd5b60008282101561131f5761131f6112f7565b500390565b60008219821115611337576113376112f7565b500190565b60006020828403121561134e57600080fd5b81518015158114610dc757600080fd5b60005b83811015611379578181015183820152602001611361565b838111156108315750506000910152565b6000825161139c81846020870161135e565b9190910192915050565b60208152600082518060208401526113c581604085016020870161135e565b601f01601f1916919091016040019291505056fea264697066735822122045b020f5eaa99c632b162d7161e215602546bfdd8bc7ac65e7abcf65ba71a80b64736f6c634300080b0033",
    "sourcePath": "/run/media/user/HDD_1/DEV/Qapo/Qapo.NET/Qapo.DeFi/Qapo.DeFi.Contracts/src/Contracts/Compounding/Strategies/_degen/LockedStratSingleAssetNoCompSalem.sol",
    "compiler": {
        "name": "solc",
        "version": "0.8.11+commit.d7f03943"
    },
    "functionHashes": {
        "deploy()": "775c300c",
        "deposit(uint256)": "b6b55f25",
        "depositAll()": "de5f6268",
        "execute()": "61461954",
        "getDeployedBalance()": "a378011f",
        "getPendingRewardAmount()": "85a1b596",
        "getTvl()": "d075dd42",
        "getUndeployedBalance()": "050d1bae",
        "owner()": "8da5cb5b",
        "panic()": "4700d305",
        "renounceOwnership()": "715018a6",
        "retire()": "a4874d77",
        "transferOwnership(address)": "f2fde38b",
        "unpanic()": "65a5e30b",
        "untuckTokens(address)": "0d85391c",
        "withdraw(uint256)": "2e1a7d4d",
        "withdrawAll()": "853828b6",
        "withdrawAllUndeployed()": "ba6c9433"
    },
    "gasEstimates": {
        "creation": {
            "codeDepositCost": "1027000",
            "executionCost": "infinite",
            "totalCost": "infinite"
        },
        "external": {
            "deploy()": "infinite",
            "deposit(uint256)": "infinite",
            "depositAll()": "infinite",
            "execute()": "infinite",
            "getDeployedBalance()": "211",
            "getPendingRewardAmount()": "infinite",
            "getTvl()": "infinite",
            "getUndeployedBalance()": "infinite",
            "owner()": "2346",
            "panic()": "infinite",
            "renounceOwnership()": "26647",
            "retire()": "6627",
            "transferOwnership(address)": "26850",
            "unpanic()": "infinite",
            "untuckTokens(address)": "infinite",
            "withdraw(uint256)": "infinite",
            "withdrawAll()": "6649",
            "withdrawAllUndeployed()": "infinite"
        }
    }
}